S00D000061737461722E73726563FC
S1130000BEC00000DDC00000DBC00000D9C000009D
S1130010D7C0000002C30000DBC20000D1C0000052
S1130020CFC00000CDC00000CBC00000C9C000009C
S1130030C7C00000C5C00000C3C00000C1C00000AC
S1130040BFC00000BDC00000BBC00000B9C00000BC
S1130050B7C00000B5C00000B3C00000B1C00000CC
S1130060AFC00000ADC00000ABC00000A9C00000DC
S1130070A7C00000A5C00000A3C00000A1C00000EC
S11300809FC000009DC000009BC0000099C00000FC
S113009097C0000095C0000093C0000091C000000C
S11300A08FC000008DC000008BC0000089C000001C
S11300B087C0000085C0000083C0000081C000002C
S11300C07FC000007DC000007BC0000079C000003C
S11300D077C0000075C0000073C0000071C000004C
S11300E06FC00000040E150E260E370E480E590E72
S11300F06A0E7B0E8C0E9D0EAE0EBF0E076342364B
S1130100B79BD8A71A39685618AEBAAB558C1D3CA4
S1130110B7CC5763BD6DEDFD753EF6177231BF0068
S11301200000803F08000000BE922449123EABAAA2
S1130130AA2ABECDCCCC4C3E00000080BEABAAAAFD
S1130140AA3E00000000BF000000803F0000000045
S113015000084178D3BB4387D1133D190E3CC3BD7E
S11301604282AD2B3E68EC8276BED98FE1A93E4C2B
S113017080EFFFBE01C4FF7F3F0000000000112498
S11301801FBECFEFD1E2DEBFCDBF00E00CBF12E057
S1130190A0E0B2E0EEECF6E200E00BBF02C0079094
S11301A00D92AE34B107D9F723E0AEE4B2E001C05A
S11301B01D92A330B207E1F70E94670F0C946513F8
S11301C01FCF86E69EE00197F1F700004098419822
S11301D080E388B9429A8FEF97E40197F1F700C062
S11301E00000429886E69EE00197F1F700004098EF
S11301F0419880E388B9429A8FEF97E40197F1F729
S113020000C00000429886E69EE00197F1F70000E6
S11302104098419880E388B9429A8FEF97E4019718
S1130220F1F700C00000429886E69EE00197F1F7DE
S113023000004098419880E288B9429A8FEF97E491
S11302400197F1F700C000004298089598B19F709B
S113025098B998B1282F207F922B98B9409841984B
S1130260429AEFEFF7E43197F1F700C000004298AB
S113027098B19F7098B998B18295807F892B88B97D
S113028040984198429A8FEF97E40197F1F700C0A4
S113029000004298089586E69EE00197F1F7000079
S11302A088E2D4DF81E0D2DF86E0D0DF8EE0CEDFEB
S11302B080E8CCCF089598B19F7098B998B1282F51
S11302C0207F922B98B9409A4198429AEFEFF7E435
S11302D03197F1F700C00000429898B19F7098B927
S11302E098B18295807F892B88B9409A4198429A27
S11302F08FEF97E40197F1F700C00000429808954A
S113030080E8A4CF0895823069F018F4813031F088
S11303100895833059F0843069F008958FE7860F8B
S113032095CF08958FEB860F91CF089583E9860FBB
S11303308DCF089583ED860F89CF08950F931F9372
S1130340CF93DF938A01E901882311F0611102C080
S1130350D7DF01C0D8DFC530D10509F0D5C0980179
S1130360329522952F7023273F702327A7E4B3E00B
S11303700E94561396958795969587959695879599
S1130380C096909377028093760295DF9801369514
S113039027953695279536952795A5ECB0E20E94CA
S11303A05613AC01529542954F7045275F7045270F
S11303B050937A02409379029A01ADECBCEC0E940E
S11303C056139695879596958795969587959C014E
S11303D0220F331F880F991F880F991F880F991FA9
S11303E0820F931F481B590BCA01C09690930203B6
S11303F08093010360DF04C0C330D10509F089C0D4
S113040098013695279536952795ABE7B4E10E9478
S11304105613AC015695479550937A02409379024E
S11304209A01ADECBCEC0E9456139695879596956F
S11304308795969587959C01220F331F880F991FE6
S1130440880F991F880F991F820F931F481B590B00
S1130450CA01C0969093FE028093FD022CDF98019E
S1130460ADECBCEC0E945613AC01569547955695DD
S113047047955695479550937A02409379029A018D
S11304800E94561396958795969587959695879588
S11304909C01220F331F880F991F880F991F880F03
S11304A0991F820F931F481B590BCA01C096909342
S11304B0800280937F02FFDE03C0C130D105F9F4CE
S11304C09801ADECBCEC0E945613969587959695D1
S11304D08795969587959C01220F331F880F991F46
S11304E0880F991F880F991F820F931F081B190BE0
S11304F0C801C096909300038093FF02DCDE269728
S113050064F085E4D8DE09C0C430D10509F074CFA5
S11305103DCFC230D10589F6A2CFDF91CF911F9193
S11305200F91089587B1876F87B988B1807888B9AA
S1130530089581B18F6081B982B1807F82B9EAE088
S1130540F1E0808188618083EBE0F1E08081886163
S1130550808308958CE08AB98BB908956D98759A53
S1130560089510BA11BA1092070110920801089563
S1130570259A2D9A0895269A2E9A0895279A2F9AA5
S11305800895E4E0F1E0808188608083E5E0F1E0B3
S11305908081877F80830895C5DFE3DFCADFDADFE8
S11305A0DDDFE6DFE8DFEADFECCF0895F894EAE682
S11305B0F0E0808182608083EC9A78940895F894C6
S11305C0EAE6F0E0808188608083ED9A789408956B
S11305D01F920F920FB60F9211248F939F93AF9394
S11305E0BF938091540290915502A0915602B0910C
S11305F057020196A11DB11D809354029093550298
S1130600A0935602B0935702BF91AF919F918F91DF
S11306100F900FBE0F901F9018951F920F920FB658
S11306200F9211248F939F93AF93BF93809158029D
S113063090915902A0915A02B0915B020196A11DBA
S1130640B11D8093580290935902A0935A02B0931B
S11306505B02BF91AF919F918F910F900FBE0F904E
S11306601F901895E1E2F1E010828FEF809325014D
S113067091E0909324011092290180932801109213
S11306802B0180932A0110922D0180932C0189EA79
S1130690809320018BE080830895E1E8F0E01082EC
S11306A08CEF8093850081E08093840093E09093A5
S11306B089008FEF8093880090938B0080938A0049
S11306C090938D0080938C00909387008093860094
S11306D08BEA80938000109282008CE080830895DE
S11306E010928900682F70E080E090E00E94FA1078
S11306F02BE734E14EEE5FE30E94611020E030E02E
S11307004CE052E40E94FD0F0E94CE1060938800DA
S1130710089510928B00682F70E080E090E00E94B2
S1130720FA102BE734E14EEE5FE30E94611020E003
S113073030E04CE052E40E94FD0F0E94CE10609322
S11307408A00089583E0809389008FEF8093880066
S1130750089583E080938B008FEF80938A0008953F
S1130760EAE7F0E0108210927B0080E280937C0044
S113077080E880BF86E880830895883018F098E088
S113078090937B008770806280937C00EAE7F0E0BE
S1130790808180648083808184FFFDCF8091790093
S11307A0EAE7F0E090819061908310927B000895D5
S11307B0682F70E080E090E00E94FA102FEE39EC90
S11307C043E95FE30E94EB119B01AC0160E070E040
S11307D080E89FE30E9461102AE939EF4EE255E474
S11307E00E94881120E030E040E251E40E94881128
S11307F00E94C910CB01613223E0720710F080E23D
S113080093E00895CF93DF93C82FD62F842FB5DFBD
S113081080937C02482F50E023E030E06D2F8C2F32
S11308208DDDDF91CF910895F894B6DE99DF1ADF5C
S113083034DFBCDEC4DE78940895809103018860BF
S1130840809305012FEF8FEF90EE21508040904070
S1130850E1F700C00000089580910301877F809331
S113086005010895CF92DF92EF92FF92CF93DF9329
S1130870109258021092590210925A0210925B027E
S1130880109254021092550210925602109257027E
S11308906115710581059105A9F036E0C8E2D1E042
S11308A0EAE2F1E032B948832083C0905402D09048
S11308B05502E0905602F0905702C616D706E80695
S11308C0F90680F312B8DF91CF91FF90EF90DF909B
S11308D0CF900895CF92DF92EF92FF92CF93DF9360
S11308E0109258021092590210925A0210925B020E
S11308F0109254021092550210925602109257020E
S11309006115710581059105A9F03AE0C8E2D1E0CD
S1130910EAE2F1E032B948832083C0905402D090D7
S11309205502E0905602F0905702C616D706E80624
S1130930F90680F312B8DF91CF91FF90EF90DF902A
S1130940CF9008950F931F93CF93DF931092580283
S11309501092590210925A0210925B0210925402A1
S1130960109255021092560210925702AA2797FD30
S1130970A095BA2F0097A105B105A9F059E0C8E2E6
S1130980D1E0EAE2F1E052B9688340830091540275
S113099010915502209156023091570208171907F9
S11309A02A073B0780F312B8DF91CF911F910F9173
S11309B00895CF92DF92EF92FF920F931F93CF93FC
S11309C0DF9308E211E00F2EF0E5CF2EF02DCAE2FE
S11309D0D1E00F2EF4E6DF2EF02D0F2EF6E0FF2EE1
S11309E0F02D0F2EFEE6EF2EF02D81E0C6DE809373
S11309F0520282E0C2DE8093510283E0BEDE809325
S1130A00500284E0BADE80938A02D2DE9093FC0224
S1130A108093FB0223E030E0AC0165E082E08EDCF1
S1130A2085E0ABDE80938902C3DE9093FA02809363
S1130A30F90223E030E0AC016AE082E07FDC10924E
S1130A40530280914D0290915102891700F59091C3
S1130A505202891720F090915002891780F42EE6F3
S1130A6030E04EE650E066E970E080E090E0FADEC7
S1130A7086E082B91092280110922A0159C081E0BF
S1130A8080935302F2B8F801E082E882AECF9091ED
S1130A905202891740F481E080935302F2B8F801BE
S1130AA01082D882A2CF20915002821740F481E0B4
S1130AB080935302F2B8F801D082188296CF281797
S1130AC008F093CF981708F090CF8091FB02909193
S1130AD0FC028C32F1E09F0708F087CF8035910546
S1130AE028F4F2B8F801D082C8827FCF9C01205547
S1130AF031092031310570F4F2B8F801D082D8827E
S1130B00FFEF2FE382E0F15020408040E1F700C086
S1130B1000006BCF805691098B39910528F4F2B807
S1130B20F801D082C88261CFF801C082D8825DCF3B
S1130B30DF91CF911F910F91FF90EF90DF90CF90B5
S1130B400895EF92FF920F931F93CF93DF930F2E8D
S1130B50F6E0EF2EF02D08E211E00F2EF4E6FF2E62
S1130B60F02DCAE2D1E081E008DE8093520282E0F7
S1130B7004DE8093510283E000DE809350021092E1
S1130B80530243E061E081E03DDE42E065E081E064
S1130B9039DE41E069E081E035DE80915102883739
S1130BA038F481E080935302E2B8F801F082F882CD
S1130BB080915202893758F080915302811107C005
S1130BC081E080935302E2B8F801F08218828091A8
S1130BD05002893758F080915302811107C081E097
S1130BE080935302E2B8F8011082F8828091510296
S1130BF0883708F0B8CF80915202883728F0809166
S1130C005002883708F0AFCF24E630E044E650E0E5
S1130C1064E670E080E090E025DE86E082B9109220
S1130C20280110922A01DF91CF911F910F91FF901B
S1130C30EF900895DF92EF92FF920F931F93CF935B
S1130C40DF93D82EE62E8AE082B984E680932801C9
S1130C5080932A012FEF8FE79DE021508040904040
S1130C60E1F700C000000F2EFAE0FF2EF02D08E29D
S1130C7011E0CAE2D1E081E080DD8093520282E09B
S1130C807CDD8093510283E078DD809350022091D3
S1130C90520290914D02921728F0F2B8F801D082D6
S1130CA0E882E9CF12B8DF91CF911F910F91FF90A5
S1130CB0EF90DF900895DF92EF92FF920F931F93CE
S1130CC0CF93DF93D82EE62E85E082B984E6809315
S1130CD0280180932A012FEF8FE79DE02150804067
S1130CE09040E1F700C000000F2EF5E0FF2EF02D3C
S1130CF008E211E0CAE2D1E081E03FDD80935202D4
S1130D0082E03BDD8093510283E037DD8093500223
S1130D1090914D02981728F0F2B8F801D082E88239
S1130D20EBCF12B8DF91CF911F910F91FF90EF900D
S1130D30DF900895DF92EF92FF920F931F93CF936A
S1130D40DF93D82EE62E0F2EFAE0FF2EF02D08E2C8
S1130D5011E0CAE2D1E081E010DD8093520282E02A
S1130D600CDD8093510283E008DD809350022091D2
S1130D70520290914D02291728F0F2B8F801D0825E
S1130D80E882E9CFDF91CF911F910F91FF90EF900F
S1130D90DF900895CF932EE630E04EE650E066E90A
S1130DA070E080E090E05EDD12B880E099DCC0E0A5
S1130DB08C2FAFDC8FEF9FE80197F1F700C00000A4
S1130DC0CF5FCC38A9F766E970E086E990E032DFBE
S1130DD012B824E630E046E950E066E970E080E0CD
S1130DE090E040DD12B8C0E08C2F7ADC8FEF9FE8F2
S1130DF00197F1F700C00000CF5FC837A9F7CCE82E
S1130E008C2F87DC8FEF9FE80197F1F700C000007B
S1130E10C150B0F797DC9DDC4EE650E06EE670E022
S1130E2084E690E08FDD64E670E084E690E043DFE2
S1130E3012B8CF910895CF932EE630E04EE650E0FD
S1130E4064E670E080E090E00DDD12B880E048DCFC
S1130E50C0E08C2F5EDC8FEF9FE80197F1F700C0B4
S1130E600000CF5FCC38A9F766E970E086E990E02E
S1130E7022DF12B826E930E044E650E066E970E08B
S1130E8080E090E0EFDC12B8C0E08C2F29DC8FEF1B
S1130E909FE80197F1F700C00000CF5FC837A9F7BA
S1130EA0CCE88C2F36DC8FEF9FE80197F1F700C078
S1130EB00000C150B0F746DC4CDC4EE650E06EE674
S1130EC070E084E690E03EDD64E670E084E690E065
S1130ED0B1DE12B8CF910895CF93DF93EC012EE6E3
S1130EE030E04EE650E064E670E080E090E0BADC8A
S1130EF062E870E082E890E0DEDE12B8CD2B09F003
S1130F004BC010927E0210927D0280E002DC8FEFD3
S1130F109FE80197F1F700C0000080917D02909155
S1130F207E02019690937E0280937D028536910520
S1130F306CF388E790E090937E0280937D0280E0DA
S1130F40CFDB8FEF9FE80197F1F700C0000080919D
S1130F507D0290917E02019790937E0280937D02A0
S1130F6099236CF784E690E090937E0280937D024F
S1130F70D0DB8FEF9FE80197F1F700C0000080916C
S1130F807D0290917E02019790937E0280937D0270
S1130F9099230CF44AC0ECCF10927E0210927D0289
S1130FA080E0B7DB8FEF9FE80197F1F700C0000006
S1130FB080917D0290917E02019690937E028093AF
S1130FC07D02833391056CF388E790E090937E0271
S1130FD080937D0280E084DB8FEF9FE80197F1F737
S1130FE000C0000080917D0290917E020197909351
S1130FF07E0280937D0299236CF782E390E09093C4
S11310007E0280937D0285DB8FEF9FE80197F1F7E5
S113101000C0000080917D0290917E020197909320
S11310207E0280937D02992374F78CDB92DB44E685
S113103050E062E870E084E690E084DC62E870E00E
S113104082E890E0F7DDDF91CF910895CF93DF93AD
S1131050EC012EE630E04EE650E064E670E080E01D
S113106090E000DC62E870E082E890E0E3DD12B832
S1131070CD2B09F04BC010927E0210927D0280E0CD
S113108048DB8FEF9FE80197F1F700C000008091E3
S11310907D0290917E02019690937E0280937D0260
S11310A0853691056CF388E790E090937E028093F7
S11310B07D0280E015DB8FEF9FE80197F1F700C018
S11310C0000080917D0290917E02019790937E02B0
S11310D080937D0299236CF784E690E090937E02DE
S11310E080937D0216DB8FEF9FE80197F1F700C034
S11310F0000080917D0290917E02019790937E0280
S113110080937D0299230CF44AC0ECCF10927E02A6
S113111010927D0280E0FDDA8FEF9FE80197F1F7EE
S113112000C0000080917D0290917E020196909310
S11311307E0280937D02833391056CF388E790E00F
S113114090937E0280937D0280E0CADA8FEF9FE85D
S11311500197F1F700C0000080917D0290917E021A
S1131160019790937E0280937D0299236CF782E32A
S113117090E090937E0280937D02CBDA8FEF9FE81C
S11311800197F1F700C0000080917D0290917E02EA
S1131190019790937E0280937D02992374F7D2DAAB
S11311A0D8DA62E870E082E890E085DDDF91CF91E3
S11311B00895CF93DF93EC0126E930E046E950E04F
S11311C062E370E080E090E04DDBCD2B09F054C089
S11311D026E930E046E950E064E670E080E090E023
S11311E041DB10927E0210927D0280E092DA8FEF52
S11311F09FE80197F1F700C0000080917D02909173
S11312007E02019690937E0280937D02853691053D
S11312106CF388E790E090937E0280937D0280E0F7
S11312205FDA8FEF9FE80197F1F700C0000080912B
S11312307D0290917E02019790937E0280937D02BD
S113124099236CF784E690E090937E0280937D026C
S113125060DA8FEF9FE80197F1F700C000008091FA
S11312607D0290917E02019790937E0280937D028D
S113127099230CF44AC0ECCF10927E0210927D02A6
S113128080E047DA8FEF9FE80197F1F700C0000094
S113129080917D0290917E02019690937E028093CC
S11312A07D028D3391056CF388E790E090937E0284
S11312B080937D0280E014DA8FEF9FE80197F1F7C5
S11312C000C0000080917D0290917E02019790936E
S11312D07E0280937D0299236CF78CE390E09093D7
S11312E07E0280937D0215DA8FEF9FE80197F1F774
S11312F000C0000080917D0290917E02019790933E
S11313007E0280937D02992374F71CDA22DA44E684
S113131050E064E670E08EE190E014DBDF91CF9161
S11313200895CF93DF93EC0164E670E080E090E0F1
S113133081DC12B864E670E080E090E0FBDC12B877
S11313402FEF8FE794E0215080409040E1F700C0F8
S11313500000F7DB12B824E630E044E650E066E92A
S113136070E080E090E07EDA24E630E044E650E08D
S113137060E273E080E090E0ADDA44E650E064E6D9
S113138070E08CE291E0DEDACD2B09F04BC01092D4
S11313907E0210927D0280E0BCD98FEF9FE8019716
S11313A0F1F700C0000080917D0290917E020196C9
S11313B090937E0280937D02853691056CF388E7D5
S11313C090E090937E0280937D0280E089D98FEF34
S11313D09FE80197F1F700C0000080917D02909191
S11313E07E02019790937E0280937D0299236CF78D
S11313F084E690E090937E0280937D028AD98FEFF9
S11314009FE80197F1F700C0000080917D02909160
S11314107E02019790937E0280937D0299230CF4BF
S11314204AC0ECCF10927E0210927D0280E071D906
S11314308FEF9FE80197F1F700C0000080917D02D3
S113144090917E02019690937E0280937D028D336B
S113145091056CF388E790E090937E0280937D027F
S113146080E03ED98FEF9FE80197F1F700C00000BC
S113147080917D0290917E02019790937E028093E9
S11314807D0299236CF78CE390E090937E02809325
S11314907D023FD98FEF9FE80197F1F700C000006C
S11314A080917D0290917E02019790937E028093B9
S11314B07D02992374F746D94CD964E670E084E63A
S11314C090E038DC12B83DDB24E630E044E650E03E
S11314D060E971E080E090E0C5D964E670E084E6FC
S11314E090E0E9DB12B8DF91CF910895CF92DF92BB
S11314F0EF92FF920F931F93CF93DF93E0907002CC
S1131500F0907102009172021091730261E272E034
S113151040E050E0D1E0C0E0C12CD12CA42FB52F85
S1131520FB013197908198132DC005C091919813B8
S113153009C0932F02C02C2D9D2D022F192FEA2EA6
S1131540FB2E06C02F5F3F4F2530310579F7932FCF
S11315504F5F5F4F6B5F7F4F49305105F9F6209322
S1131560740290937502E0927002F09271020093FB
S113157072021093730289E090E090937E0280934C
S11315807D0204C0FB012D2F3C2FD0CFDF91CF91E2
S11315901F910F91FF90EF90DF90CF9008952F92BD
S11315A03F924F925F926F927F928F929F92AF92EF
S11315B0BF92CF92DF92EF92FF920F931F93CF933C
S11315C0DF9300D01F92CDB7DEB790DF409070025A
S11315D05090710200917202109173020F2EFBE879
S11315E0AF2EF2E0BF2EF02DC12CD12C312C212CAA
S11315F00F2EF8EE6F2EF3E07F2EF02DF501832DE4
S1131600922D9601215031093A83298342018C1885
S11316109D089C828B829194819491087601E89430
S1131620E1F8A981BA81129720F0B4E0EB16F10435
S113163059F48230910541F4D50115967C926E924D
S1131640149701963296EDCF4B815C8155230CF4AF
S1131650A401B801681B790B9B0122F422273327CC
S1131660261B370B240F351F2193319301968530A8
S11316709105B9F6BFEFCB1ADB0A2AE0A20EB11C22
S113168039E0C316D10409F0B9CF85E090E0909316
S113169075028093740289E090E090937E028093B7
S11316A07D020F900F900F900F90DF91CF911F91BB
S11316B00F91FF90EF90DF90CF90BF90AF909F90ED
S11316C08F907F906F905F904F903F902F900895F0
S11316D020914E0230914F02A901440F551FFA0187
S11316E0EB51FD4F91838083FA01E45AFD4F7183DE
S11316F060832F5F3F4F30934F0220934E029C0133
S1131700220F331F220F331F280F391F260F371FB5
S1131710F901EE0FFF1FE757FD4F408151815093B0
S1131720820240938102F901EE0FFF1FE357FD4F40
S11317302081318130938402209383029C012150C3
S11317403109F901EE0FFF1FEE0FFF1F2E0F3F1F90
S1131750260F371FF901EE0FFF1FE557FD4F2081BC
S1131760318130938602209385020196FC01EE0FAD
S1131770FF1FEE0FFF1F8E0F9F1F680F791FFB01C6
S1131780EE0FFF1FE557FD4F8081918190938802F2
S113179080938702089590911F02981709F4A1C0BD
S11317A09E3439F5873549F464E670E084E690E0C8
S11317B041DA87E580931F020895853449F464E68D
S11317C070E084E690E077DA85E480931F02089560
S11317D0833509F05FC064E670E084E690E06BDA7C
S11317E064E670E084E690E066DA83E580931F02A5
S11317F00895933539F58E3471F464E670E084E627
S113180090E059DA64E670E084E690E054DA8EE41D
S113181080931F020895853449F464E670E084E6F9
S113182090E008DA85E480931F020895873509F073
S113183058C064E670E084E690E03DDA87E5809382
S11318401F020895953431F58E3449F464E670E04E
S113185084E690E0EFD98EE480931F0208958735E3
S113186071F464E670E084E690E025DA64E670E002
S113187084E690E020DA87E580931F02089583359B
S113188081F564E670E084E690E015DA83E5809300
S11318901F020895973529F58E3449F464E670E003
S11318A084E690E008DA8EE480931F02089585347C
S11318B071F464E670E084E690E0FDD964E670E0DB
S11318C084E690E0F8D985E480931F020895833577
S11318D041F464E670E084E690E0ACD983E580935B
S11318E01F0208956F927F928F929F92AF92BF9240
S11318F0CF92DF92EF92FF920F931F93CF93DF93D8
S1131900D82EC62F4CDE8C2FF1DD0F2EF0E7EF2EF4
S1131910F2E0FF2EF02DF70100811181C2E7D2E041
S1131920888099808D2DE2DDF70180819181288165
S11319303981C0E0D0E0AC01440F551F440F551F5E
S1131940840F951F820F931F880F991F9C012557A1
S11319503D4F69010F2EF1E8EF2EF2E0FF2EF02D3E
S1131960612C712C6894AA24A2F8B12C43C0B40150
S1131970C801AEDEF70140815181862D972D21915A
S113198031912417350714F4EC01A9010196843030
S11319909105A9F7CE01B0927E02A0927D02209714
S11319A071F40530110519F00330110521F4F2E04A
S11319B08F1A91081BC021E0821A910817C0C13008
S11319C0D10571F40530110519F00330110521F426
S11319D032E0830E911C0EC08FEF881A980A0AC059
S11319E0C230D10519F40150110904C0039711F450
S11319F00F5F1F4FF801EE0FFF1FEE0FFF1FE00FE9
S1131A00F11FE80DF91DEE0FFF1FE557FD4F208173
S1131A103181F601808191812817390709F0A7CF18
S1131A2080914E0290914F02880F991FFC01EB5157
S1131A30FD4F11830083FC01E45AFD4F91828082A3
S1131A40DF91CF911F910F91FF90EF90DF90CF9096
S1131A50BF90AF909F908F907F906F900895EF927A
S1131A60FF920F931F93CF93DF93962F673659F00E
S1131A70603749F02EE8260F223028F0643319F03D
S1131A80623309F05CC0682F892F2CDFE0904E028E
S1131A90F0904F0287010150110911230CF4A0C0EA
S1131AA0C701880F991F9C012B513D4F7901E80113
S1131AB0CC0FDD1FC45ADD4FF701329122917F0113
S1131AC08281938128173907A1F4288139818A8179
S1131AD09B81821793072CF485E45DDE0E94D90470
S1131AE025C02817390714F587E555DE0E94D90467
S1131AF01DC02817390764F4688179814A815B81A4
S1131B006417750729F48EE446DE0E94D9040EC0DA
S1131B10821793075CF4288139818A819B81281775
S1131B20390721F483E537DE0E94D90401501109F5
S1131B3022970F3FFFEF1F0709F0BECF51C0D2DE3F
S1131B40CCE5D2E00F2EF5EEEF2EF2E0FF2EF02DD5
S1131B5000E010E03DC0F701219131917F010F5F5A
S1131B601F4F8081918128173907A1F42881398179
S1131B708A819B81281739072CF485E40CDE0E94A6
S1131B80D90425C08217930714F587E504DE0E9463
S1131B90D9041DC08217930764F4688179814A814E
S1131BA05B816417750729F48EE4F5DD0E94D9047E
S1131BB00EC0281739075CF4288139818A819B81FA
S1131BC02817390721F483E5E6DD0E94D90422961B
S1131BD080914E0290914F02081719070CF4BBCF65
S1131BE010924F0210924E02DF91CF911F910F91EC
S1131BF0FF90EF90089501978C30910508F0D0C0C4
S1131C008E589F4FFC014CC560911E0282E627DF6F
S1131C1080911F028E3411F4BDD803C0833509F4BA
S1131C200AD982E680931E02089560911E0282E61C
S1131C3016DF80911F028E3411F4FDD803C0833562
S1131C4009F4A8D882E680931E02089560911E02CA
S1131C5087E605DF80911F028E3411F49BD803C000
S1131C60833509F4E8D887E680931E0208956091CD
S1131C701E0287E6F4DE80911F028E3411F4DBD855
S1131C8003C0833509F486D887E680931E0208953D
S1131C9060911E0283E6E3DE80911F028E3411F40C
S1131CA079D803C0833509F4C6D883E680931E022D
S1131CB0089560911E0283E6D2DE80911F028E3465
S1131CC011F4B9D803C0833509F464D883E680934A
S1131CD01E02089560911E0283E7C1DE80911F02F7
S1131CE08E3411F457D803C0833509F4A4D883E79C
S1131CF080931E02089560911E0283E7B0DE8091F6
S1131D001F028E3411F497D803C0833509F442D8E6
S1131D1083E780931E02089560911E0285E69FDE8C
S1131D2080911F028E3411F435D803C0833509F431
S1131D3082D885E680931E02089560911E0285E68E
S1131D408EDE80911F028E3411F475D803C0833562
S1131D5009F420D885E680931E02089560911E023E
S1131D6080E77DDE80911F028E3411F413D803C006
S1131D70833509F460D880E780931E02089560914A
S1131D801E0280E76CDE80911F028E3411F453D85A
S1131D9004C0833511F40E94CA0680E780931E02B2
S1131DA00895672B09F492C08230910569F11CF4FF
S1131DB0019749F008958330910509F446C00497CA
S1131DC009F464C0089560911E0281E348DE8091A5
S1131DD01F028E3431F4809114029091150236D989
S1131DE00FC0833531F4809114029091150274D898
S1131DF007C0873529F48091140290911502D9D92E
S1131E0081E380931E02089560911E0282E327DE1F
S1131E1080911F028E3431F4809116029091170242
S1131E205BD80FC0833531F480911602909117026C
S1131E300DD907C0853429F48091160290911702B8
S1131E40B8D982E380931E02089560911E0283E351
S1131E5006DE80911F028E3431F480911802909135
S1131E601902F4D80FC0833531F48091180290918F
S1131E70190232D807C0873529F48091180290914D
S1131E80190297D983E380931E02089560911E027C
S1131E9084E3E5DD80911F028E3431F480911A02CF
S1131EA090911B0219D80FC0833531F480911A0226
S1131EB090911B02CBD807C0853429F480911A0273
S1131EC090911B0276D984E380931E020895CF93E8
S1131ED0DF930E9414040E94E1000E944B010E94BF
S1131EE0D90464E670E084E690E00E945B06809189
S1131EF0100290911102009781F07DDE60911E0224
S1131F0082E7ADDD80911C0290911D020ADA82E71E
S1131F1080931E0283E580931F02809112029091A8
S1131F201302009781F067DE60911E0282E797DD5D
S1131F3080911C0290911D02F4D982E780931E02C5
S1131F4083E580931F02C0E0D2E08881998153DE4B
S1131F506881798181E090E024DFC2E0D2E0888169
S1131F60998149DE6881798181E090E01ADFC4E0DB
S1131F70D2E0888199813FDE6881798182E090E0B6
S1131F8010DFC6E0D2E08881998135DE68817981ED
S1131F9082E090E006DFC8E0D2E0888199812BDE00
S1131FA06881798183E090E0FCDECAE0D2E0888138
S1131FB0998121DE6881798183E090E0F2DECCE0D2
S1131FC0D2E08881998117DE6881798184E090E08C
S1131FD0E8DECEE0D2E0888199810DDE68817981E6
S1131FE084E090E0DEDE0E941D040E942C0480E068
S1131FF090E0DF91CF9108955058BB27AA270ED0C7
S11320004DC13ED130F043D120F031F49F3F11F463
S11320101EF433C10EF4E095E7FB29C1E92F4FD13B
S113202080F3BA17620773078407950718F071F4F1
S11320309EF567C10EF4E0950B2EBA2FA02D0B016F
S1132040B90190010C01CA01A0011124FF27591BF9
S113205099F0593F50F4503E68F11A16F040A22FFF
S1132060232F342F4427585FF3CF46953795279570
S1132070A795F0405395C9F77EF41F16BA0B620B6F
S1132080730B840BBAF09150A1F0FF0FBB1F661FB6
S1132090771F881FC2F70EC0BA0F621F731F841FF9
S11320A048F4879577956795B795F7959E3F08F01F
S11320B0B3CF9395880F08F09927EE0F97958795DE
S11320C008950CD0EBC0E3D040F0DAD030F021F426
S11320D05F3F19F0CCC0511115C1CFC0F0D098F3B7
S11320E09923C9F35523B1F3951B550BBB27AA2795
S11320F062177307840738F09F5F5F4F220F331F07
S1132100441FAA1FA9F333D00E2E3AF0E0E830D0D2
S113211091505040E695001CCAF729D0FE2F27D0D5
S1132120660F771F881FBB1F261737074807AB07A3
S1132130B0E809F0BB0B802DBF01FF2793585F4F18
S11321402AF09E3F510568F092C0DCC05F3FECF37B
S1132150983EDCF3869577956795B795F7959F5FDD
S1132160C9F7880F911D9695879597F90895E1E031
S1132170660F771F881FBB1F621773078407BA0790
S113218020F0621B730B840BBA0BEE1F88F7E095EB
S1132190089504D06894B111B5C0089598D088F01A
S11321A09F5790F0B92F9927B751A0F0D1F0660F3F
S11321B0771F881F991F1AF0BA95C9F712C0B1305A
S11321C081F09FD0B1E008959CC0672F782F8827B5
S11321D0B85F39F0B93FCCF3869577956795B39599
S11321E0D9F73EF490958095709561957F4F8F4F08
S11321F09F4F0895E89409C097FB3EF4909580950D
S1132200709561957F4F8F4F9F4F9923A9F0F92FB8
S113221096E9BB279395F695879577956795B79536
S1132220F111F8CFFAF4BB0F11F460FF1BC06F5F1C
S11322307F4F8F4F9F4F16C0882311F096E911C02E
S1132240772321F09EE8872F762F05C0662371F04F
S113225096E8862F70E060E02AF09A95660F771F63
S1132260881FDAF7880F9695879597F9089597F957
S11322709F6780E870E060E008959FEF80EC089528
S113228000240A9416161706180609060895002451
S11322900A9412161306140605060895092E0394CB
S11322A0000C11F4882352F0BB0F40F4BF2B11F43F
S11322B060FF04C06F5F7F4F8F4F9F4F089557FD9E
S11322C09058440F551F59F05F3F71F04795880FA0
S11322D097FB991F61F09F3F79F087950895121637
S11322E013061406551FF2CF4695F1DF08C01616E3
S11322F017061806991FF1CF869571056105089494
S11323000895E894BB2766277727CB0197F90895AA
S11323100BD0C4CFB5DF28F0BADF18F0952309F04D
S1132320A6CFABCF1124EECFCADFA0F3959FD1F394
S1132330950F50E0551F629FF001729FBB27F00D6F
S1132340B11D639FAA27F00DB11DAA1F649F6627C4
S1132350B00DA11D661F829F2227B00DA11D621F13
S1132360739FB00DA11D621F839FA00D611D221FCD
S1132370749F3327A00D611D231F849F600D211DB1
S1132380822F762F6A2F11249F5750408AF0E1F054
S113239088234AF0EE0FFF1FBB1F661F771F881F9D
S11323A091505040A9F79E3F510570F060CFAACFDD
S11323B05F3FECF3983EDCF3869577956795B79588
S11323C0F795E7959F5FC1F7FE2B880F911D9695B2
S11323D0879597F90895FA01EE0FFF1F30962105AE
S11323E0310599F16115710561F48038BFE39B07EC
S11323F049F168949038810561F08038BFEF9B07FC
S113240041F0992342F5FF3FE1053105210511F122
S1132410E8940894E795D901AA2329F4AB2FBE2F99
S1132420F85FD0F310C0FF5F70F4A695E0F7F739BA
S113243050F019F0FF3A38F49F779F930CD00F9027
S113244007FC905808953EF018CF60E070E080E8F3
S11324509FE308954FE79F775F934F933F932F93A5
S11324609ED02F913F914F915F9152DF05C019F497
S11324700EF0FDCE46CF01CF2ADFC8F39638C0F761
S113248007F80F92E8942BE33AEA48EB5FE74EDF54
S11324900F920F920F924DB75EB70F92C0D0ECEF30
S11324A0F0E016D04F915F91EF91FF91E595EE1F0B
S11324B0FF1F49F0FE57E0684427EE0F441FFA95CA
S11324C0E1F74195550B32D00F9007FE26C00895D1
S11324D0DF93CF931F930F93FF92EF92DF927B01D1
S11324E08C01689405C0DA2EEF011EDFFE01E8942A
S11324F0A5912591359145915591AEF3EF018EDD6E
S1132500FE019701A801DA9479F7DF90EF90FF902C
S11325100F911F91CF91DF9108959B01AC0160E071
S113252070E080E89FE3CDCDA2CEACC0D0DEE8F36E
S11325309923D9F3940F511DBBF39150504094F05B
S113254059F0882332F0660F771F881F915050404E
S1132550C1F79E3F510544F7880F911D96958795C5
S113256097F908955F3FACF0983E9CF0BB278695A1
S113257077956795B79508F4B1609395C1F7BB0F4C
S113258058F711F460FFE8CF6F5F7F4F8F4F9F4F75
S1132590E3CFB8CE0EF076C070CE689468CE97DEE6
S11325A0C8F39923D1F3C6F3DF93CF931F930F930B
S11325B0FF92C92FDD2788232AF02197660F771F02
S11325C0881FDAF720E030E040E85FEB9FE38839CA
S11325D020F0803E30F021968F770FDDE4E2F1E0C9
S11325E003C00BDDE1E5F1E073DF8B01BE01EC011B
S11325F0FB2E6F5771097595771F880B990BFCDDBE
S113260028E132E741E35FE38FDEAF2D9801AE01AD
S1132610FF900F911F91CF91DF9100DD3FCEFA0122
S1132620DC01AA0FBB1F9B01AC01BF5728F4222772
S11326303327442750781FC0B75188F4AB2F0024A8
S1132640469537952795011CA395D2F3002069F090
S1132650220F331F441FB395DAF30DD0CDCC613074
S11326607105A0E88A07B94630F49B01AC016627DE
S1132670772788279078309621F02083318342830E
S1132680538308959F3F31F0915020F487957795B7
S11326906795B795880F911D9695879597F9089535
S11326A0EE0FFF1F0590F491E02D1994A29FB00145
S11326B0B39FC001A39F700D811D1124911DB29F72
S11126C0700D811D1124911D0895F894FFCF13
S11326CE03000200040000000700000008000000E0
S11326DE0100000001000000000001000000695725
S11326EE3030303030307135723030656E7030309D
S11326FE337A343030636E73303031773230306247
S111270E6E6730306C696D30303030303064BE
S9030000FC
